:020000040800F2
:10000000000008245D0D0008B1090008B7090008C8
:10001000BD090008C3090008C90900080000000064
:10002000000000000000000000000000CF090008F0
:10003000DD09000800000000EB090008F9090008CC
:10004000AD0D0008AD0D0008AD0D0008AD0D0008A8
:10005000AD0D0008AD0D0008AD0D0008AD0D000898
:10006000AD0D0008AD0D0008AD0D0008AD0D000888
:10007000AD0D0008AD0D0008AD0D0008AD0D000878
:10008000AD0D0008AD0D0008AD0D0008AD0D000868
:10009000AD0D0008AD0D0008AD0D0008AD0D000858
:1000A000AD0D0008AD0D0008AD0D0008AD0D000848
:1000B000AD0D0008AD0D0008AD0D0008AD0D000838
:1000C000AD0D0008AD0D0008AD0D0008AD0D000828
:1000D000AD0D0008AD0D0008AD0D0008AD0D000818
:1000E000AD0D0008AD0D000800000000AD0D0008CA
:1000F000AD0D0008AD0D0008AD0D0008AD0D0008F8
:10010000AD0D0008AD0D0008AD0D0008AD0D0008E7
:10011000AD0D0008AD0D0008AD0D0008AD0D0008D7
:10012000AD0D0008AD0D0008AD0D0008AD0D0008C7
:10013000AD0D0008AD0D0008AD0D0008AD0D0008B7
:1001400000000000000000000000000000000000AF
:10015000AD0D0008AD0D0008AD0D0008AD0D000897
:10016000AD0D0008AD0D0008AD0D0008AD0D000887
:10017000AD0D0008AD0D0008AD0D0008AD0D000877
:10018000AD0D0008AD0D0008AD0D0008AD0D000867
:10019000AD0D0008AD0D0008AD0D0008AD0D000857
:1001A000AD0D0008AD0D0008AD0D0008AD0D000847
:1001B000AD0D0008AD0D0008AD0D0008AD0D000837
:1001C000AD0D0008AD0D0008AD0D0008AD0D000827
:1001D000AD0D0008AD0D0008AD0D0008AD0D000817
:1001E000AD0D0008AD0D0008AD0D0008AD0D000807
:1001F000AD0D0008AD0D0008AD0D0008AD0D0008F7
:10020000AD0D0008AD0D0008AD0D0008AD0D0008E6
:10021000AD0D0008AD0D0008AD0D0008AD0D0008D6
:10022000AD0D0008AD0D0008AD0D00080000000088
:10023000AD0D0008AD0D000800000000AD0D000878
:10024000AD0D0008AD0D0008AD0D0008AD0D0008A6
:10025000AD0D0008AD0D0008AD0D0008AD0D000896
:10026000AD0D0008AD0D0008AD0D0008AD0D000886
:10027000AD0D0008AD0D0008AD0D00080000000038
:10028000AD0D0008AD0D0008AD0D00080000000028
:0802900000000000AD0D0008A4
:1002A00010B5054C237833B9044B13B10448AFF3B0
:1002B00000800123237010BD040100240000000011
:1002C0006882000808B5034B1BB103490348AFF32C
:1002D000008008BD000000000801002468820008BA
:1002E00001F0FF01102A2BDB10F0070F08D010F8E7
:1002F000013B013A8B422DD010F0070F42B3F6D1EB
:10030000F0B441EA012141EA014122F007047FF003
:1003100000070023F0E80256083C85EA010586EA5A
:10032000010685FA47F5A3FA87F586FA47F6A5FA96
:1003300087F68EB9EED1F0BC01F0FF0102F00702A2
:1003400032B110F8013B013A83EA010313B1F8D14D
:100350000020704701387047002D06BF354603382E
:10036000073815F0010F07D1013015F4807F02BF67
:10037000013015F4C03F0130F0BC0138704700BFB8
:1003800080B58AB000AF07F1140300221A605A60EA
:100390009A60DA601A613B4BD3F8E030394A43F097
:1003A0001003C2F8E030374BD3F8E03003F010030D
:1003B0003B613B69334BD3F8E030324A43F00403EE
:1003C000C2F8E0302F4BD3F8E03003F00403FB60B9
:1003D000FB682C4BD3F8E0302A4A43F08003C2F884
:1003E000E030284BD3F8E03003F08003BB60BB68FB
:1003F000244BD3F8E030234A43F00103C2F8E03045
:10040000204BD3F8E03003F001037B607B680022CF
:100410004FF481611C4803F089F801224FF4205108
:10042000194803F083F84FF481637B610123BB61BA
:100430000023FB6100233B6207F1140319461248B5
:1004400002F0ACFE4FF400537B610023BB6102233A
:10045000FB6107F1140319460C4802F09FFE4FF4AC
:1004600020537B610123BB610023FB6103233B62BB
:1004700007F114031946044802F090FE00BF283724
:10048000BD4680BD004402580010025800080258C2
:1004900080B582B000AF78603960012208210B4836
:1004A00003F044F87B68013B184602F055FD00223A
:1004B0000821064803F03AF83B68013B184602F071
:1004C0004BFD00BF0837BD4680BD00BF001002587D
:1004D00080B582B000AF7860396000223968064884
:1004E00005F0A0FC00227968034805F07FFD00BFFD
:1004F0000837BD4680BD00BF2001002480B58EB006
:1005000002AF02F097FC00F05BF8FFF739FF00F054
:10051000E7F800F073F900F033FB00F049FC00222B
:100520004FF48061224803F001F83A1D07F11803E7
:1005300011461846FFF7CCFFBB7903F00103DBB28D
:10054000002B08D03B791A467B7907F11C0019492A
:1005500007F01CFA07E03B791A467B7907F11C008B
:10056000154907F013FA07F11C03019310230093B8
:100570001023A0223A21042000F0DCFF02F0E0FC6E
:10058000024607F11C030D49184607F0FFF907F171
:100590001C030193102300931023A0224A2104205E
:1005A00000F0C8FF4FF4FA710320FFF771FFB6E7C0
:1005B000001002588082000890820008A082000883
:1005C00080B59CB000AF07F124034C2200211846EF
:1005D00007F0D4F93B1D20220021184607F0CEF980
:1005E000022002F0CDFF00233B60374BDB6A364A26
:1005F00023F00103D362344BDB6A03F001033B6059
:10060000324B9B6923F44043304A43F48043936167
:100610002E4B9B6903F440433B603B6800BF2B4B70
:100620009B6903F40053B3F5005FF8D102F098FF23
:1006300002F0B6FC264B1B6F254A23F01803136704
:1006400005237B624FF48033BB620123FB620223EC
:10065000BB640223FB6402233B650C237B650223FE
:10066000BB650223FB6502233B660C237B660223EA
:10067000BB660023FB6607F12403184602F0BAFFAD
:100680000346002B01D000F025F83F237B600323B5
:10069000BB600023FB6000233B6100237B610023E0
:1006A000BB614FF48063FB6100233B623B1D012172
:1006B000184603F0F9FB0346002B01D000F00AF8BE
:1006C00000BF7037BD4680BD000400580048025886
:1006D0000044025880B400AF72B600BFFEE70000CD
:1006E00080B586B000AF3B1D00221A605A609A6048
:1006F000DA601A6100233B60254B264A1A60244BBE
:1007000000225A60224B7F229A60214BFF22DA603E
:100710001F4B00221A611E4B00229A611C4B0022C3
:10072000DA611B4B00225A61194805F05BFA034657
:10073000002B01D0FFF7CEFF12233B7100237B710A
:100740000023BB7100233B6100237B613B1D012221
:1007500019460F4805F0C8FA0346002B01D0FFF7F1
:10076000B9FF01233B7006237B700123BB7020235C
:10077000FB703B4601221946054805F0AFFB0346D6
:10078000002B01D0FFF7A6FF00BF1837BD4680BD84
:10079000200100240040005880B5B2B000AF78605E
:1007A00007F10803C0220021184607F0E7F87B682C
:1007B0001B68104A934219D14FF480024FF0000396
:1007C000C7E902234FF48073C7F8BC3007F1080370
:1007D000184603F099FE0346002B01D0FFF77AFF7D
:1007E000054B1B6F044A43F40043136700BFC8372F
:1007F000BD4680BD004000580044025880B500AF9F
:10080000284B294A1A60274B4FF480025A60254B27
:100810004FF4C0229A60234B0722DA60214B00225A
:100820001A61204B00225A611E4B4FF080629A6180
:100830001C4B4FF00052DA611A4B00221A62194B1E
:1008400000225A62174B00229A62164B0022DA628B
:10085000144B4FF080425A63124B00229A63114BA3
:100860000022DA630F4B00221A640E4B00225A64F6
:100870000C4B00229A640B4B0022DA64094B0022D5
:100880001A65084B00225A65064B00229A650548F6
:1008900005F0CAFC0346002B01D0FFF71BFF00BF89
:1008A00080BD00BF440100240034014080B5BAB0CF
:1008B00000AF786007F1D40300221A605A609A6092
:1008C000DA601A6107F11003C0220021184607F010
:1008D00055F87B681B68264A934245D14FF4005275
:1008E0004FF00003C7E9042300237B6707F11003DF
:1008F000184603F009FE0346002B01D0FFF7EAFE7D
:100900001C4BD3F8F0301B4A43F40053C2F8F030CC
:10091000184BD3F8F03003F40053FB60FB68154B21
:10092000D3F8E030134A43F01003C2F8E030114B23
:10093000D3F8E03003F01003BB60BB684FF4A04372
:10094000C7F8D4300223C7F8D8300023C7F8DC300A
:100950000223C7F8E0300523C7F8E43007F1D403D9
:100960001946054802F01AFC00BFE837BD4680BDB5
:1009700000340140004402580010025880B483B093
:1009800000AF0A4BD3F8F430084A43F00203C2F830
:10099000F430064BD3F8F43003F002037B607B683D
:1009A00000BF0C37BD465DF8047B70470044025819
:1009B00080B400AFFEE780B400AFFEE780B400AFC4
:1009C000FEE780B400AFFEE780B400AFFEE780B47E
:1009D00000AF00BFBD465DF8047B704780B400AF38
:1009E00000BFBD465DF8047B704780B400AF00BF18
:1009F000BD465DF8047B704780B500AF02F08CFA0D
:100A000000BF80BD80B586B000AF7860144A154B3A
:100A1000D31A7B617B693B61134B1B68002B02D1AE
:100A2000114B124A1A60104B1A687B6813443A69DA
:100A30009A4207D206F078FF03460C221A604FF064
:100A4000FF3309E0084B1B68FB60074B1A687B68A3
:100A50001344054A1360FB6818461837BD4680BD2D
:100A60000000082400040000CC01002480070024BA
:100A700080B400AF374BD3F88830364A43F4700364
:100A8000C2F88830344B1B6803F00F03062B07D8DD
:100A9000314B1B6823F00F032F4A43F00703136009
:100AA0002E4B1B682D4A43F0010313602B4B002291
:100AB0001A612A4B1A682949294B13400B60264BAF
:100AC0001B6803F00803002B07D0234B1B6823F09F
:100AD0000F03214A43F007031360204B00229A6161
:100AE0001E4B0022DA611D4B00221A621B4B1D4A6D
:100AF0009A621A4B1C4ADA62184B1C4A1A63174B4B
:100B000000225A63154B194A9A63144B0022DA6388
:100B1000124B164A1A64114B00225A640F4B1B6881
:100B20000E4A23F4802313600C4B00221A66104BEC
:100B30001A68104B1340B3F1005F02D20E4B012232
:100B40001A600E4B43F2D2021A6000BFBD465DF838
:100B5000047B704700ED00E0002000520044025882
:100B60007FEDF6EA000202020000FF0180020101AF
:100B70000010005C0000FFFF08810051004000529F
:100B800080B596B000AF07F14C0300221A605A609E
:100B90009A6007F1300300221A605A609A60DA60A6
:100BA0001A615A619A613B1D2C220021184606F0F9
:100BB000E5FE394B394A1A60374B0B225A60364BE7
:100BC00000229A60344B40F2E732DA60324B002266
:100BD0001A61314B00225A612F4B00229A612E4834
:100BE00006F0BBF80346002B01D0FFF773FD00238E
:100BF000FB6400233B6500237B6507F14C0319462A
:100C0000254806F085FD0346002B01D0FFF762FD65
:100C100060233B6300237B630023BB630023FB63F0
:100C200000233B6400237B640023BB6407F1300393
:100C300004221946184806F0E7F80346002B01D0B5
:100C4000FFF748FD00237B600023BB600023FB60AF
:100C500000233B6100237B614FF40053BB61002301
:100C6000FB6100233B624FF000737B620023BB6299
:100C70000023FB623B1D1946074806F0D7FD0346DB
:100C8000002B01D0FFF726FD034800F02BF800BF32
:100C90005837BD4680BD00BFD00100240000014090
:100CA00080B485B000AF78607B681B680B4A9342C4
:100CB0000ED10B4BD3F8F030094A43F00103C2F8D0
:100CC000F030074BD3F8F03003F00103FB60FB6812
:100CD00000BF1437BD465DF8047B7047000001403B
:100CE0000044025880B588B000AF786007F10C036B
:100CF00000221A605A609A60DA601A617B681B6889
:100D0000134A93421FD1134BD3F8E030114A43F0FA
:100D10000103C2F8E0300F4BD3F8E03003F00103D9
:100D2000BB60BB684FF40073FB6002233B61002390
:100D30007B610023BB610123FB6107F10C031946B2
:100D4000054802F02BFA00BF2037BD4680BD00BF2A
:100D5000000001400044025800000258DFF834D07F
:100D6000FFF786FE0C480D490D4A002302E0D458D7
:100D7000C4500433C4188C42F9D30A4A0A4C0023E5
:100D800001E013600432A242FBD306F0D3FDFFF76B
:100D9000B5FB704700000824000000240401002473
:100DA000D8F100080401002480070024FEE70000B9
:100DB000B0B588B002AF7D4B03229A607B4B002216
:100DC0001A737A4B01225A7379497A4800F0FAFC77
:100DD000794B1B68754A052176489847764B9B6886
:100DE000764974489847002000F0FAF8724B9C6AE4
:100DF000734B002200216F48A04702F0A1F87861F0
:100E00006AE00A2002F0A8F802F09AF802467B692C
:100E1000D31AB3F57A7F0FD802F092F802467B69B5
:100E2000D31A642202FB03F3664AA2FB03239B0945
:100E3000184600F0D5F84FE002F082F802467B69D0
:100E4000D31A40F6B83293423DD802F079F8024600
:100E50007B69D31AA3F57A735B4AA2FB0323DA08F2
:100E60003B465A49184606F091FD504B1B689BB211
:100E70001E3B98B24D4B1B689AB23B460193102320
:100E800000931023012100F055FB4B4B9C6B474B0B
:100E90005B68DD1E02F054F802467B69D31AA3F5A5
:100EA0007A73424A126802FB03F3464AA2FB032309
:100EB000DB094FF6FF720192032200922A460021BD
:100EC0003C48A04708E002F03BF802467B69D31A91
:100ED00040F6B832934208D84FF400513C4802F033
:100EE0000DFB0346012B8CD104E000BF02E00A2079
:100EF00002F032F84FF40051354802F0FFFA034691
:100F0000012BF4D04FF49671002000F08BF82A4B9F
:100F10009C6B264B1A68254B5B684FF6FF7101915D
:100F200000931346002200212248A0473B4629494E
:100F3000184606F02BFD1D4B1B689AB23B460193E9
:100F40001023009310230421042000F0F3FA02F090
:100F500033F802463B462049184606F017FD134B6E
:100F60001B689AB23B46019310230093102316216D
:100F7000042000F0DFFA114B1A683B461749184667
:100F800006F004FD094B1B689AB23B4601931023FF
:100F9000009310232821042000F0CCFAC8216420FB
:100FA00000F040F800BF1837BD46B0BD5C02002419
:100FB000080000241C0200242C00002454020024F9
:100FC000548D0008D34D6210CDCCCCCCAC8200083F
:100FD00000080258B4820008C4820008D4820008C5
:100FE00080B582B000AF786001224FF4806105487F
:100FF00002F09CFA044B1B687A689A6300BF0837BA
:10100000BD4680BD00100258D001002480B400AF5E
:10101000034B1B689B6B1846BD465DF8047B70470D
:10102000D001002480B58AB000AF78603960FFF746
:10103000EDFF786200233B627A6A7B689A425ED059
:101040003A683B6A9A425CD07B6A07EE903AF8EEC7
:10105000677AC7ED077A7B6807EE903AF8EE677A11
:1010600097ED077A77EE677AC7ED077A3B6A07EE66
:10107000903AF8EE677AC7ED067A3B6807EE903A49
:10108000F8EE677A97ED067A77EE677AC7ED067A1B
:10109000D7ED076A97ED067AC6EE877AC7ED057A2F
:1010A00001F04EFF3861012001F056FF01F048FFCA
:1010B00002463B69D31A3B623B6A07EE903AF8EE70
:1010C000677AC7ED067A97ED067AD7ED057A27EEAF
:1010D000277A7B6A07EE903AF8EE677A77EE277AFE
:1010E000C7ED037AD7ED037AFCEEE77A17EE900AA4
:1010F000FFF776FF3A6A3B689A4204D2D3E700BF13
:1011000002E000BF00E000BF2837BD4680BD000000
:101110002DE9F04F97B002AF1E460346FB850B4604
:10112000BB85134687F82B30334687F82A306B4649
:101130007B60BB8DA7F84830FB8DA7F84630AF4BDE
:101140001B88A7F8443097F82A300C2B01D10621D0
:1011500000E0082197F82A004B1E3B640A46002352
:1011600092469B464FF000024FF000034FEA0B13EC
:1011700043EA1A734FEA0A120B465E000346013B2C
:10118000FB630A460023BA61FB61C3B200223B62E3
:101190007A62D7E906AB5B463A6A02FB03FC7B6ADC
:1011A000524602FB03F39C4452463B6AA2FB03896E
:1011B0000CEB090399464FF000024FF000034FEA91
:1011C000091343EA18734FEA08120A4600233A61EA
:1011D0007B61C3B20022BB60FA60D7E904894B4649
:1011E000D7E902AB524602FB03FC5B46424602FBD8
:1011F00003F39C4442465346A2FB03450CEB050314
:101200001D464FF000024FF000032B0143EA147318
:1012100022010B46024602FB03F35B000733DB08A7
:10122000DB00ADEB030D02AB01335B085B00BB637E
:1012300007F130031946724801F020FC07F134032E
:1012400019466F4801F02CFC97F82B30203B87F8AB
:101250002B300023A7F84A3097F87830002B40F065
:10126000A780002387F84D309AE097F82A300C2B9E
:101270000ED197F82B2097F84D10624813465B006B
:1012800013449B0003440B441B7887F84F300AE05B
:1012900097F82B2097F84D305B4912010A4413440C
:1012A0001B7887F84F30002387F84E306DE097F9B0
:1012B0004F30002B0EDAB7F844301B021AB2B7F8E1
:1012C00044301B0A9BB21BB213431BB29AB24B4B66
:1012D0001A800DE04D4B1B881B021AB24B4B1B882A
:1012E0001B0A9BB21BB213431BB29AB2434B1A8028
:1012F0007208B7F84A1097F84D305B08DBB21C460D
:101300003E4B1888BB6B01FB02F22244014623F8D6
:101310001210B7F84A300133A7F84A3097F82A304C
:101320009BB2B7F84A209A4202D30023A7F84A306A
:1013300097F84F305B0087F84F30BB8D0133BB858A
:10134000BA8D7B6B9A4204D32C4AB7F84430138091
:10135000E6E0BA8DB7F84830D21A97F82A309A42A8
:101360000ED1B7F84830BB85FB8D0133FB85FA8D74
:101370003B6B9A420ED3214AB7F844301380CFE03A
:1013800097F84E30013387F84E3097F84E30072BE0
:101390008DD900E000BF97F84D30013387F84D300C
:1013A00097F84D2097F82A309A42FFF45EAF9CE000
:1013B000002387F84D3091E097F82A300C2B0ED19E
:1013C00097F82B2097F84D100E4813465B001344F6
:1013D0009B0003440B441B7887F84F300AE097F8D2
:1013E0002B2097F84D30084912010A4413441B780A
:1013F00087F84F30002387F84E3064E0280000243F
:101400001C020024F08200086487000858020024AF
:1014100097F94F30002B1ADA444B1B881B021AB283
:10142000424B1B881B0A9BB21BB2134318B27208B3
:10143000B7F84A1097F84D305B08DBB21C4680B213
:10144000BB6B01FB02F22244014623F81210B7F8ED
:101450004A300133A7F84A3097F82A309BB2B7F8E0
:101460004A209A4202D30023A7F84A3097F84F3017
:101470005B0087F84F30BB8D0133BB85BA8D7B6B2A
:101480009A4204D3294AB7F84430138048E0BA8D11
:10149000B7F84830D21A97F82A309A420ED1B7F8E6
:1014A0004830BB85FB8D0133FB85FA8D3B6B9A423F
:1014B0000ED31E4AB7F84430138031E097F84E300F
:1014C000013387F84E3097F84E30072BA0D900E053
:1014D00000BF97F84D30013387F84D3097F84D2015
:1014E00097F82A309A42FFF467AFB7F84610B7F87A
:1014F000480097F82A300C2B01D1062300E008237E
:1015000097F82A2001920093BB6B0246084801F02D
:1015100007F9064AB7F844301380D7F804D001E041
:10152000D7F804D05437BD46BDE8F08F280000241A
:101530001C02002490B587B002AF0446084611464D
:101540001A462346FB800346BB800B467B8013462E
:101550003B80FB88FB737A88FB8813447B803A8846
:10156000BB8813443B8024E0FA887B889A4207D3E7
:10157000FB7BFB8097F820309AB2BB881344BB807A
:10158000BA883B889A421DD27B6A1A7897F8203035
:10159000B988F88800240094FFF7BAFD97F8203046
:1015A0005B08DBB29AB2FB881344FB807B6A013391
:1015B0007B627B6A1B787E2B05D87B6A1B781F2B8E
:1015C000D2D800E000BF00BF1437BD4690BD80B444
:1015D00083B000AF00237B607B6818460C37BD46A4
:1015E0005DF8047B704780B500AF01F0A9FC0346AD
:1015F000184680BD80B586B000AF0346B9607A60FA
:10160000FB7300224FF400611D4801F08FFF0022A0
:101610004FF400511A4801F089FF07F10F016423CC
:101620000122184804F024FF03467B6101224FF495
:101630000051134801F07AFF7B68002B0CD07B68C7
:101640009AB24FF4FA73B9680E4804F011FF0346DA
:101650001A467B6913447B6101224FF400610848FC
:1016600001F064FF7B69002B03DD4FF0FF337B61EA
:1016700001E000237B617B6918461837BD4680BDB9
:10168000001002584401002480B584B000AF034626
:101690003960FB7100224FF400611B4801F046FFE6
:1016A00000224FF40051184801F040FFF91D642357
:1016B0000122164804F0DCFE0346FB6001224FF4D1
:1016C0000051114801F032FF4FF4FA7301223968DA
:1016D0000E4805F0C9F803461A46FB681344FB6040
:1016E00001224FF40061084801F020FFFB68002B45
:1016F00003DD4FF0FF33FB6001E00023FB60FB687C
:1017000018461037BD4680BD001002584401002421
:1017100080B584B000AF7860396000224FF400617A
:101720000F4801F003FF3B689AB2642379680D48C3
:1017300004F09EFE0346FB6001224FF4006108485E
:1017400001F0F4FEFB68002B03DD4FF0FF33FB607C
:1017500001E00023FB60FB6818461037BD4680BDE2
:10176000001002584401002480B584B000AF7860B6
:10177000396000224FF40061104801F0D7FE3B6849
:101780009AB24FF4FA7379680D4805F06DF8034684
:10179000FB6001224FF40061084801F0C7FEFB68BE
:1017A000002B03DD4FF0FF33FB6001E00023FB6003
:1017B000FB6818461037BD4680BD00BF00100258B8
:1017C0004401002480B584B000AF786039607B6844
:1017D000002B03D14FF0FF33FB603AE03B681A68FF
:1017E0007B681A603B685A687B685A603B681A8954
:1017F0007B681A813B68DA687B68DA603B681A6943
:101800007B681A613B685A697B685A613B689A69D0
:101810007B689A613B68DA697B68DA617B680F4AAA
:101820005A627B680E4A1A627B680E4A9A627B682B
:101830000D4ADA627B687A681A637B681B68002B42
:1018400004D07B681B689847F86002E04FF0FF33D4
:10185000FB60FB6818461037BD4680BDCD2C0008E4
:10186000F52C00081F2D0008432D000880B586B018
:1018700000AFF860B9607A60FB68002B03D14FF0CD
:10188000FF337B61A6E30023FB74FB6803F12000B8
:1018900007F113020023012101F092FA7861782107
:1018A000F86801F060FA0023FB74FB6803F1200084
:1018B00007F113020023012101F082FA78617821F7
:1018C000F86801F050FA0023FB74FB6803F1200074
:1018D00007F113020123112101F072FA02467B691C
:1018E00013447B61FB6803F1200007F1130200231E
:1018F000B12101F065FA02467B6913447B61012343
:10190000FB74FB68203307F113010122184601F034
:101910006CFA02467B6913447B612C23FB74FB68E1
:10192000203307F113010122184601F05EFA024646
:101930007B6913447B612D23FB74FB68203307F123
:1019400013010122184601F050FA02467B69134444
:101950007B610123FB74FB6803F1200007F1130294
:101960000123B22101F02CFA02467B6913447B610A
:101970002C23FB74FB68203307F113010122184666
:1019800001F033FA02467B6913447B612D23FB741B
:10199000FB68203307F113010122184601F025FAF4
:1019A00002467B6913447B610123FB74FB6803F1EE
:1019B000200007F113020123B32101F001FA0246CE
:1019C0007B6913447B612C23FB74FB68203307F194
:1019D00013010122184601F008FA02467B691344FC
:1019E0007B612D23FB74FB68203307F11301012277
:1019F000184601F0FAF902467B6913447B61012322
:101A0000FB74FB68203307F113010122184601F033
:101A1000ECF902467B6913447B612C23FB74FB6861
:101A2000203307F113010122184601F0DEF90246C6
:101A30007B6913447B612D23FB74FB68203307F122
:101A400013010122184601F0D0F902467B691344C4
:101A50007B610723FB74FB6803F1200007F113028D
:101A60000123B42101F0ACF902467B6913447B6188
:101A7000A223FB74FB6803F1200007F1130201238A
:101A8000C02101F09DF902467B6913447B6102236A
:101A9000FB74FB68203307F113010122184601F0A3
:101AA000A4F902467B6913447B618423FB74FB68C1
:101AB000203307F113010122184601F096F902467E
:101AC0007B6913447B61C523FB74FB6803F1200031
:101AD00007F113020123C12101F072F902467B696B
:101AE00013447B610A23FB74FB6803F1200007F1B8
:101AF00013020123C22101F063F902467B691344FA
:101B00007B610023FB74FB68203307F11301012282
:101B1000184601F06AF902467B6913447B618A2307
:101B2000FB74FB6803F1200007F113020123C321BA
:101B300001F046F902467B6913447B612A23FB745A
:101B4000FB68203307F113010122184601F04DF91B
:101B500002467B6913447B618A23FB74FB6803F1B3
:101B6000200007F113020123C42101F029F90246E4
:101B70007B6913447B61EE23FB74FB68203307F120
:101B800013010122184601F030F902467B69134423
:101B90007B610E23FB74FB6803F1200007F1130245
:101BA0000123C52101F00CF902467B6913447B61D6
:101BB0007B681B7B002B0DD1FB6803F1200007F134
:101BC00013020023212101F0FBF802467B69134434
:101BD0007B610CE0FB6803F1200007F11302002396
:101BE000202101F0EDF802467B6913447B61FB681C
:101BF00003F1200007F1080201233A2101F0E0F887
:101C000002467B6913447B610223FB74FB6803F18A
:101C1000200007F113020123E02101F0D1F8024670
:101C20007B6913447B611C23FB74FB68203307F141
:101C300013010122184601F0D8F802467B691344CB
:101C40007B610723FB74FB68203307F1130101223A
:101C5000184601F0CAF802467B6913447B611223DF
:101C6000FB74FB68203307F113010122184601F0D1
:101C7000BCF802467B6913447B613723FB74FB6825
:101C8000203307F113010122184601F0AEF8024695
:101C90007B6913447B613223FB74FB68203307F1BB
:101CA00013010122184601F0A0F802467B69134493
:101CB0007B612923FB74FB68203307F113010122A8
:101CC000184601F092F802467B6913447B612D238C
:101CD000FB74FB68203307F113010122184601F061
:101CE00084F802467B6913447B612923FB74FB68FB
:101CF000203307F113010122184601F076F802465D
:101D00007B6913447B612523FB74FB68203307F157
:101D100013010122184601F068F802467B6913445A
:101D20007B612B23FB74FB68203307F11301012235
:101D3000184601F05AF802467B6913447B61392347
:101D4000FB74FB68203307F113010122184601F0F0
:101D50004CF802467B6913447B610023FB74FB68EB
:101D6000203307F113010122184601F03EF8024624
:101D70007B6913447B610123FB74FB68203307F10B
:101D800013010122184601F030F802467B69134422
:101D90007B610323FB74FB68203307F113010122ED
:101DA000184601F022F802467B6913447B61102338
:101DB000FB74FB68203307F113010122184601F080
:101DC00014F802467B6913447B610323FB74FB68B0
:101DD00003F1200007F113020123E12100F0F0FFDD
:101DE00002467B6913447B611D23FB74FB6820332F
:101DF00007F113010122184600F0F7FF02467B6944
:101E000013447B610723FB74FB68203307F1130144
:101E10000122184600F0E9FF02467B6913447B610A
:101E20000623FB74FB68203307F1130101221846D7
:101E300000F0DBFF02467B6913447B612E23FB74B9
:101E4000FB68203307F113010122184600F0CDFF93
:101E500002467B6913447B612C23FB74FB682033AF
:101E600007F113010122184600F0BFFF02467B690B
:101E700013447B612923FB74FB68203307F11301B2
:101E80000122184600F0B1FF02467B6913447B61D2
:101E90002D23FB74FB68203307F113010122184640
:101EA00000F0A3FF02467B6913447B612E23FB7481
:101EB000FB68203307F113010122184600F095FF5B
:101EC00002467B6913447B612E23FB74FB6820333D
:101ED00007F113010122184600F087FF02467B69D3
:101EE00013447B613723FB74FB68203307F1130134
:101EF0000122184600F079FF02467B6913447B619A
:101F00003F23FB74FB68203307F1130101221846BD
:101F100000F06BFF02467B6913447B610023FB7476
:101F2000FB68203307F113010122184600F05DFF22
:101F300002467B6913447B610023FB74FB682033FA
:101F400007F113010122184600F04FFF02467B699A
:101F500013447B610223FB74FB68203307F11301F8
:101F60000122184600F041FF02467B6913447B6161
:101F70001023FB74FB68203307F11301012218467C
:101F800000F033FF02467B6913447B610023FB743E
:101F9000FB6803F1200007F113020123132100F075
:101FA0000FFF02467B6913447B61FB6803F120004D
:101FB00007F113020123292100F002FF02467B6989
:101FC00013447B617968F86800F044F902467B6944
:101FD00013447B617B69002B02D04FF0FF337B61A0
:101FE0007B6918461837BD4680BD80B483B000AF0A
:101FF0007860002318460C37BD465DF8047B7047B7
:1020000080B584B000AF786039607B68203307F119
:102010000802DA21184600F0C0FE0346002B03D068
:102020004FF0FF33FB602DE07B6803F1200007F1E8
:10203000080301331A46DB2100F0AFFE0346002BF4
:1020400003D04FF0FF33FB601CE07B6803F12000FE
:1020500007F1080302331A46DC2100F09EFE034616
:10206000002B03D04FF0FF33FB600BE0BB7A1A4626
:102070007B7A1B021A433B7A1B041A433B681A60A3
:102080000023FB60FB6818461037BD4680BD00008A
:1020900080B584B000AF78600023FB727B6803F1E9
:1020A000200007F10B020023132100F089FEF860E5
:1020B0000A21786800F057FE7B6803F1200007F1E1
:1020C0000B020023292100F07BFE0246FB6813442B
:1020D000FB600A21786800F046FE7B6803F120006F
:1020E00007F10B020023362100F06AFE0246FB686E
:1020F0001344FB60164B1B7B002B0AD1144B9B68CF
:10210000144ADB0013445B68DBB243F00803DBB224
:1021100006E00F4B9B680F4ADB0013445B68DBB2A1
:10212000FB727B68203307F10B010122184600F097
:102130005CFE0246FB681344FB60FB68002B02D088
:102140004FF0FF33FB60FB6818461037BD4680BD7B
:102150005C0200247800002480B584B000AF786071
:102160000023FB727B6803F1200007F10B020023C0
:10217000132100F025FEF8600A21786800F0F3FDD5
:102180007B6803F1200007F10B020023282100F0F7
:1021900017FE0246FB681344FB600A21786800F0D2
:1021A000E2FD7B6803F1200007F10B0200233621DA
:1021B00000F006FE0246FB681344FB60164B1B7BD7
:1021C000002B0AD1144B9B68144ADB0013445B6854
:1021D000DBB243F00803DBB206E00F4B9B680F4A0B
:1021E000DB0013445B68DBB2FB727B68203307F1D2
:1021F0000B010122184600F0F8FD0246FB6813446B
:10220000FB60FB68002B02D04FF0FF33FB60FB68E4
:1022100018461037BD4680BD5C02002478000024BB
:1022200080B483B000AF786039604FF0FF33184658
:102230000C37BD465DF8047B704780B483B000AFB7
:10224000786039604FF0FF3318460C37BD465DF8B3
:10225000047B704780B586B002AF786039603B6818
:102260009B68002B03D03B689B68012B19D13B680E
:102270005B7B012B06D13C4B50221A603A4BA022CB
:102280005A6028E03B685B7B002B03D03B685B7B9C
:10229000022B20D1344B80221A60334BA0225A608B
:1022A00019E03B685B7B012B06D12F4BA0221A6003
:1022B0002D4B50225A600FE03B685B7B002B03D014
:1022C0003B685B7B022B07D1274BA0221A60264B71
:1022D00080225A6000E000BF3B689B68224A9360FE
:1022E0003B681A7B204B1A733B685A7B1E4B5A7310
:1022F0001D4B1A681C4B5B6800931346002200219B
:10230000786800F0DFFBF860174B1B7B002B0AD1CD
:10231000154B9B68154ADB0013445B68DBB243F046
:102320000803DBB206E0104B9B68104ADB00134445
:102330005B68DBB2FB727B6803F1200007F10B02E4
:102340000123362100F03CFD0246FB681344FB608C
:10235000FB68002B02D04FF0FF33FB60FB68184690
:102360001037BD4680BD00BF5C0200247800002409
:1023700080B483B000AF78603960054B9A683B68E1
:102380001A60002318460C37BD465DF8047B704781
:102390005C02002480B586B000AFF860B9607A6056
:1023A000594B9B68012B21D8574B5B7B012B0ED1DE
:1023B000554B1B7B002B06D1BB681A33BB607B6877
:1023C00001337B6033E0BB681833BB602FE04E4BBA
:1023D0005B7B022B2BD14C4B1B7B012B27D1BB688A
:1023E0000233BB607B6801337B6020E0464B5B7B44
:1023F000012B0ED1444B1B7B002B06D1BB68013354
:10240000BB607B681A337B6011E07B6818337B60AC
:102410000DE03D4B5B7B022B09D13B4B1B7B012B22
:1024200005D1BB680133BB607B6802337B60FB680E
:1024300003F1200007F1130200232A2100F0C0FC61
:102440007861BB681B0ADBB2FB74FB68203307F1C1
:1024500013010122184600F0C8FC02467B691344B0
:102460007B61BB68DBB2FB74FB68203307F11301AF
:102470000122184600F0B9FC02467B6913447B61D7
:10248000FB6803F1200007F1130200232B2100F069
:1024900097FC02467B6913447B617B681B0ADBB2B5
:1024A000FB74FB68203307F113010122184600F08A
:1024B0009CFC02467B6913447B617B68DBB2FB7446
:1024C000FB68203307F113010122184600F08DFC50
:1024D00002467B6913447B61FB6803F1200007F12E
:1024E000130200232C2100F06BFC02467B6913448D
:1024F0007B617B69002B02D04FF0FF337B617B69EE
:1025000018461837BD4680BD5C02002480B590B0E7
:1025100002AFF860B9607A603B6000237B63002300
:10252000FB623B680A331B781A463B680B331B7807
:102530001B021A443B680C331B781B041A443B688B
:102540000D331B781B061344BB623B6812331B78A8
:102550001A463B6813331B781B021A443B6814333A
:102560001B781B041A443B6815331B781B06134465
:102570007B623B6816331B781A463B6817331B781F
:102580001B021A443B6818331B781B041A443B682F
:1025900019331B781B0613443B623B6802331B78DC
:1025A0001A463B6803331B781B021A443B6804330A
:1025B0001B781B041A443B6805331B781B06134425
:1025C000FB61FA69BB6AD31AFB613A68BB6A1344C0
:1025D0003B63514B5A687B68D21A3B6AD31ABB6182
:1025E0003B6A00937B6ABA69B968F86800F06AFAD6
:1025F0000346002B03D04FF0FF337B6387E0464B4D
:102600001B7B002B09D1444B9B68444A52F8333062
:10261000DBB243F00803DBB205E03F4B9B683F4A67
:1026200052F83330DBB2FB74FB6803F1200007F192
:1026300013020123362100F0C3FB0346002B03D015
:102640004FF0FF337B6362E0BA69B968F868FFF75F
:10265000A1FE0346002B03D04FF0FF337B6356E00F
:102660003B6B5B783B753B6B1B787B75FB68203362
:1026700007F114010222184600F0B7FB0346002BB5
:1026800003D04FF0FF337B6309E0FB6A0233FB6248
:102690003B6B02333B63FA6AFB699A42E0D31E4B01
:1026A0001B7B002B0AD11C4B9B681C4ADB0013448C
:1026B0005B68DBB243F00803DBB206E0164B9B68B5
:1026C000164ADB0013445B68DBB2FB74FB6803F162
:1026D000200007F113020123362100F071FB0346AD
:1026E000002B03D04FF0FF337B6310E00A4B1A68D6
:1026F000094B5B680093134600220021F86800F044
:10270000E1F90346002B02D04FF0FF337B637B6B74
:1027100018463837BD4680BD5C020024780000248E
:1027200080B588B000AFF860B9607A603B60002384
:10273000FB613B68BB61BA68BB6A1A442B4B1B68E0
:102740009A4206D87A68FB6A1A44284B5B689A4218
:1027500003D94FF0FF33FB6142E000233B613BE0D4
:102760007A683B6913441A46B968F868FFF712FEA5
:102770000346002B03D04FF0FF33FB6129E0002319
:102780007B6113E07B695B00BA691178184AD15408
:10279000BB695A1C7B695B0001331178144AD15420
:1027A000BB690233BB617B6901337B617A69BB6AB8
:1027B0009A42E7D3FB6803F12000BB6A5B001A462C
:1027C0000B4900F012FB0346002B02D04FF0FF3301
:1027D000FB613B6901333B613A69FB6A9A42BFD3B3
:1027E000FB6918462037BD4680BD00BF5C0200244F
:1027F0006C02002480B586B000AFF860B9607A60E2
:102800003B6000237B61BA683B681A441F4B1B681E
:102810009A4203D94FF0FF337B6132E07A68B9689E
:10282000F868FFF7B7FD0346002B03D04FF0FF33E6
:102830007B6126E000233B6110E03B6A1A0A3B699A
:102840005B00D1B2124AD1543B695B0001333A6A52
:10285000D1B20F4AD1543B6901333B613A693B68BD
:102860009A42EAD3FB6803F120003B685B001A46FA
:10287000074900F0BAFA0346002B02D04FF0FF33AD
:102880007B617B6918461837BD4680BD5C02002419
:10289000EC04002480B586B000AFF860B9607A60BF
:1028A0003B6000237B617A683B681A44124B5B688B
:1028B0009A4203D94FF0FF337B6118E000233B615C
:1028C00011E07A683B691A443B6AB968F86800F01D
:1028D00041F80346002B03D04FF0FF337B6106E045
:1028E0003B6901333B613A693B689A42E9D37B69B2
:1028F00018461837BD4680BD5C02002480B58AB0FA
:1029000002AFF860B9607A603B600023FB617B68CE
:102910007B610023BB6114E0FB6A00933B687A692A
:10292000B968F868FFF766FF0346002B03D04FF045
:10293000FF33FB6109E07B6901337B61BB690133D4
:10294000BB61BA69BB6A9A42E6D3FB691846203775
:10295000BD4680BD80B586B000AFF860B9607A60D2
:102960003B6000237B613B689BB21B029BB27B8276
:102970003B681B0A9AB27B8A13439BB27B82164B3D
:102980001B68BA689A4204D2134B5B687A689A4211
:1029900003D34FF0FF337B6119E07A68B968F868B8
:1029A000FFF7F8FC0346002B03D04FF0FF337B61A9
:1029B0000DE0FB68203307F112010222184600F0F7
:1029C00014FA0346002B02D04FF0FF337B617B6982
:1029D00018461837BD4680BD5C02002480B586B01D
:1029E00000AFF860B9607A603B607A68B968F868EF
:1029F000FFF7D0FC7861FB68203307F111022E212C
:102A0000184600F0CAF902467B6913447B61FB68F3
:102A1000203307F111010122184600F0F8F90246AF
:102A20007B6913447B61FB68203307F113010122AA
:102A3000184600F0ECF902467B6913447B61FB68A1
:102A4000203307F112010122184600F0E0F9024696
:102A50007B6913447B61FB7C1A46BB7C1B021A44D6
:102A60003B681A607B69002B02D04FF0FF337B611B
:102A70007B6918461837BD4680BD000080B483B01E
:102A800000AF78603960054B1A683B681A60002314
:102A900018460C37BD465DF8047B70475C02002485
:102AA00080B483B000AF78603960054B5A683B68EA
:102AB0001A60002318460C37BD465DF8047B70474A
:102AC0005C02002480B586B000AFF860B9607A601F
:102AD0003B607D4B9B68012B21D87B4B5B7B012BA3
:102AE0000ED1794B1B7B002B06D1BB681A33BB6020
:102AF0007B6801337B6036E0BB681833BB6032E033
:102B0000714B5B7B022B2ED16F4B1B7B012B2AD190
:102B1000BB680233BB607B6801337B6023E06A4B98
:102B20005B7B012B11D1684B1B7B002B06D1BB6853
:102B30000133BB607B681A337B6014E0BB680133F0
:102B4000BB607B6818337B600DE05F4B5B7B022BC7
:102B500009D15D4B1B7B012B05D1BB680133BB60E9
:102B60007B6802337B60FB6803F1200007F11302EE
:102B700000232A2100F024F97861BB681B0ADBB22C
:102B8000FB74FB68203307F113010122184600F0A3
:102B90002CF902467B6913447B61BB68DBB2FB7492
:102BA000FB68203307F113010122184600F01DF9DC
:102BB00002467B6913447B61BA683B681344013B5E
:102BC0001B0ADBB2FB74FB68203307F113010122FF
:102BD000184600F00AF902467B6913447B61BB6822
:102BE000DAB23B68DBB21344DBB2013BDBB2FB740D
:102BF000FB68203307F113010122184600F0F5F8B5
:102C000002467B6913447B61FB6803F1200007F1F6
:102C1000130200232B2100F0D3F802467B691344F2
:102C20007B617B681B0ADBB2FB74FB68203307F116
:102C300013010122184600F0D8F802467B691344BC
:102C40007B617B68DBB2FB74FB68203307F1130107
:102C50000122184600F0C9F802467B6913447B61E3
:102C60007A683B6A1344013B1B0ADBB2FB74FB68C6
:102C7000203307F113010122184600F0B6F802468E
:102C80007B6913447B617B68DAB23B6ADBB2134435
:102C9000DBB2013BDBB2FB74FB68203307F11301AD
:102CA0000122184600F0A1F802467B6913447B61BB
:102CB0007B69002B02D04FF0FF337B617B691846A4
:102CC0001837BD4680BD00BF5C02002480B586B0C9
:102CD00000AFF8600B467A60FB72FB687B617B6932
:102CE0001B69FA7A796810469847034618461837E0
:102CF000BD4680BD80B586B000AFF8607A603B60AD
:102D00000B46FB72FB687B617B69DB68F87A3A688B
:102D100079689847034618461837BD4680BD80B588
:102D200086B000AFF860B9607A60FB687B617B6950
:102D30005B697968B8689847034618461837BD46F6
:102D400080BD80B586B000AFF860B9607A60FB687E
:102D50007B617B699B697968B86898470346184628
:102D60001837BD4680BD80B584B000AF786039604B
:102D70007B68DB6998470346FB6000BF7B68DB69C3
:102D8000984703461A46FB68D31A3A689A42F5D820
:102D9000002318461037BD4680BD80B584B000AF13
:102DA000F8600B467A60FB72FB685B68FA68106932
:102DB000F97A7A689847034618461037BD4680BDB1
:102DC00090B585B000AFF8607A603B600B46FB724F
:102DD000FB681C68FB681869F97A3B687A68A04749
:102DE000034618461437BD4690BD80B584B000AF89
:102DF000F860B9607A60FB689B68FA6810697A6865
:102E0000B9689847034618461037BD4680BD80B55F
:102E100084B000AFF860B9607A60FB68DB68FA687C
:102E200010697A68B9689847034618461037BD4656
:102E300080BD000080B582B000AF032000F07CF9B7
:102E400001F0E8F90246154B9B691B0A03F00F03DA
:102E50001349CB5C03F01F0322FA03F37B600F4B93
:102E60009B6903F00F030E4AD35C03F01F037A68DB
:102E700022FA03F30B4A13600B4A7B6813600020AD
:102E800000F014F80346002B01D0012302E0FDF707
:102E900075FD002318460837BD4680BD0044025822
:102EA000E0820008040000240000002480B582B005
:102EB00000AF7860154B1B78002B01D1012321E076
:102EC000134B1A68114B1B7819464FF47A73B3FBF6
:102ED000F1F3B2FBF3F3184600F053F90346002B6D
:102EE00001D001230EE07B680F2B0AD800227968FD
:102EF0004FF0FF3000F02BF9064A7B681360002387
:102F000000E0012318460837BD4680BD9C00002420
:102F1000000000249800002480B400AF064B1B780A
:102F20001A46064B1B681344044A136000BFBD4693
:102F30005DF8047B704700BF9C0000246C070024F0
:102F400080B400AF034B1B681846BD465DF8047B98
:102F5000704700BF6C07002480B584B000AF786074
:102F6000FFF7EEFFB8607B68FB60FB68B3F1FF3FE3
:102F700005D00A4B1B781A46FB681344FB6000BF60
:102F8000FFF7DEFF0246BB68D31AFA689A42F7D809
:102F900000BF00BF1037BD4680BD00BF9C000024AD
:102FA00080B400AF034B1B681B0C1846BD465DF890
:102FB000047B70470010005C80B400AF044B1B68BA
:102FC000C3F30B031846BD465DF8047B704700BF92
:102FD0000010005C80B485B000AF78607B6803F0BF
:102FE0000703FB600B4BDB68BB60BA684FF6FF035F
:102FF0001340BB60FB681A02BB681A43064B1343BD
:10300000BB60044ABB68D36000BF1437BD465DF89F
:10301000047B704700ED00E00000FA0580B400AFCB
:10302000044BDB681B0A03F007031846BD465DF836
:10303000047B704700ED00E080B483B000AF03462E
:103040003960FB80B7F90630002B0ADB3B68DAB247
:103050000C49B7F906301201D2B20B4483F80023B1
:103060000AE03B68DAB20849FB8803F00F03043B2F
:103070001201D2B20B441A7600BF0C37BD465DF880
:10308000047B704700E100E000ED00E080B489B00F
:1030900000AFF860B9607A60FB6803F00703FB617A
:1030A000FB69C3F10703042B28BF0423BB61FB6941
:1030B0000433062B02D9FB69033B00E000237B614C
:1030C0004FF0FF32BB6902FA03F3DA43BB681A40E0
:1030D0007B699A404FF0FF317B6901FA03F3D943D2
:1030E0007B680B40134318462437BD465DF8047BCC
:1030F0007047000080B582B000AF78607B68013B0C
:10310000B3F1807F01D301230FE00A4A7B68013BC2
:1031100053600F214FF0FF30FFF78EFF054B002269
:103120009A60044B07221A60002318460837BD46F0
:1031300080BD00BF10E000E080B582B000AF7860D5
:103140007868FFF747FF00BF0837BD4680BD80B5F0
:1031500086B000AF0346B9607A60FB81FFF75EFF7F
:1031600078617A68B9687869FFF790FF0246B7F925
:103170000E3011461846FFF75FFF00BF1837BD46F7
:1031800080BD80B582B000AF78607868FFF7B2FF8D
:10319000034618460837BD4680BD000080B489B09C
:1031A00000AF786039600023FB61894B7B6194E15B
:1031B0003B681A680121FB6901FA03F313403B6184
:1031C0003B69002B00F086813B685B6803F00303DA
:1031D000012B05D03B685B6803F00303022B30D161
:1031E0007B689B68BB61FB695B00032202FA03F307
:1031F000DB43BA691340BB613B68DA68FB695B007B
:1032000002FA03F3BA691343BB617B68BA699A6037
:103210007B685B68BB610122FB6902FA03F3DB4355
:10322000BA691340BB613B685B681B0903F001028C
:10323000FB6902FA03F3BA691343BB617B68BA699D
:103240005A603B685B6803F00303032B17D07B686D
:10325000DB68BB61FB695B00032202FA03F3DB431B
:10326000BA691340BB613B689A68FB695B0002FA6C
:1032700003F3BA691343BB617B68BA69DA603B68E0
:103280005B6803F00303022B23D1FB69DA087B6838
:10329000083253F82230BB61FB6903F007039B003F
:1032A0000F2202FA03F3DB43BA691340BB613B68A8
:1032B0001A69FB6903F007039B0002FA03F3BA697A
:1032C0001343BB61FB69DA087B680832B96943F8CC
:1032D00022107B681B68BB61FB695B00032202FA5A
:1032E00003F3DB43BA691340BB613B685B6803F0DF
:1032F0000302FB695B0002FA03F3BA691343BB6183
:103300007B68BA691A603B685B6803F44033002B42
:1033100000F0E0802F4BD3F8F4302E4A43F0020344
:10332000C2F8F4302B4BD3F8F43003F00203FB6007
:10333000FB68294AFB699B08023352F82330BB61C2
:10334000FB6903F003039B000F2202FA03F3DB4344
:10335000BA691340BB617B68204A934252D07B68B4
:103360001F4A934231D07B681E4A93422BD07B6820
:103370001D4A934225D07B681C4A93421FD07B682C
:103380001B4A934219D07B681A4A934213D07B6838
:10339000194A93420DD07B68184A934207D07B6844
:1033A000174A934201D109232DE00A232BE0082379
:1033B00029E0072327E0062325E0052323E0042353
:1033C00021E003231FE002231DE001231BE000BFD7
:1033D00080000058004402580004005800000258C1
:1033E0000004025800080258000C0258001002584D
:1033F0000014025800180258001C025800200258FD
:10340000002402580023FA6902F00302920093405C
:10341000BA691343BB613849FB699B080233BA6937
:1034200041F823204FF0B0431B68BB613B69DB438D
:10343000BA691340BB613B685B6803F48013002BDF
:1034400003D0BA693B691343BB614FF0B042BB691B
:1034500013604FF0B0435B68BB613B69DB43BA6903
:103460001340BB613B685B6803F40013002B03D07F
:10347000BA693B691343BB614FF0B042BB6953600B
:103480007B695B68BB613B69DB43BA691340BB6125
:103490003B685B6803F40033002B03D0BA693B69D7
:1034A0001343BB617B69BA695A607B691B68BB6166
:1034B0003B69DB43BA691340BB613B685B6803F45B
:1034C0008033002B03D0BA693B691343BB617B692E
:1034D000BA691A60FB690133FB613B681A68FB69D2
:1034E00022FA03F3002B7FF463AE00BF00BF243742
:1034F000BD465DF8047B70470004005880B485B079
:1035000000AF78600B467B807B681A697B8813402C
:10351000002B02D00123FB7301E00023FB73FB7B34
:1035200018461437BD465DF8047B704780B483B0FD
:1035300000AF78600B467B8013467B707B78002B56
:1035400003D07A887B689A6103E07B881A047B68E1
:103550009A6100BF0C37BD465DF8047B70470000E0
:1035600080B400AF054B1B68044A43F480731360BA
:1035700000BFBD465DF8047B704700BF004802589D
:1035800080B584B000AF7860194BDB6803F00403AA
:10359000042B0AD0164BDB6803F007037A689A42C3
:1035A00001D001231FE000231DE0114BDB6823F055
:1035B00007020F497B681343CB60FFF7C1FCF8603B
:1035C00009E0FFF7BDFC0246FB68D31AB3F57A7F2A
:1035D00001D9012307E0064B5B6803F40053B3F500
:1035E000005FEED1002318461037BD4680BD00BFF6
:1035F0000048025880B58CB000AF78607B68002B23
:1036000002D1012300F048BC7B681B6803F0010372
:10361000002B00F08880994B1B6903F03803FB6294
:10362000964B9B6ABB62FB6A102B07D0FB6A182B78
:1036300011D1BB6A03F00303022B0CD18F4B1B6823
:1036400003F40033002B6DD07B685B68002B69D1DD
:10365000012300F021BC7B685B68B3F5803F06D195
:10366000864B1B68854A43F4803313602EE07B68E9
:103670005B68002B0CD1814B1B68804A23F480339C
:1036800013607E4B1B687D4A23F4802313601DE08A
:103690007B685B68B3F5A02F0CD1784B1B68774A29
:1036A00043F480231360754B1B68744A43F48033E2
:1036B00013600BE0714B1B68704A23F48033136076
:1036C0006E4B1B686D4A23F4802313607B685B6834
:1036D000002B13D0FFF734FC786208E0FFF730FCD2
:1036E00002467B6AD31A642B01D90323D4E3634BCC
:1036F0001B6803F40033002BF0D014E0FFF720FC2C
:10370000786208E0FFF71CFC02467B6AD31A642B40
:1037100001D90323C0E3594B1B6803F40033002B8A
:10372000F0D100E000BF7B681B6803F00203002BB0
:1037300000F0CA80514B1B6903F038033B624F4BCA
:103740009B6AFB613B6A002B07D03B6A182B56D162
:10375000FB6903F00303002B51D1484B1B6803F0B6
:103760000403002B05D07B68DB68002B01D101230B
:1037700092E3424B1B6823F019027B68DB683F49E8
:1037800013430B60FFF7DCFB786208E0FFF7D8FB20
:1037900002467B6AD31A022B01D903237CE3374B01
:1037A0001B6803F00403002BF0D0FFF7F9FB03467E
:1037B00041F20302934217D87B681B69402B08D162
:1037C0002E4B5B6823F47C332C4A43F40033536064
:1037D0007AE02A4B5B6823F47C327B681B691B030D
:1037E000264913434B606FE0244B5B6823F0FE4295
:1037F0007B681B691B06214913434B6064E07B68AF
:10380000DB68002B47D01D4B1B6823F019027B6837
:10381000DB681A4913430B60FFF792FB786208E0FC
:10382000FFF78EFB02467B6AD31A022B01D90323D2
:1038300032E3124B1B6803F00403002BF0D0FFF7B8
:10384000AFFB034641F20302934219D87B681B6920
:10385000402B08D1094B5B6823F47C33074A43F4BF
:103860000033536030E0054B5B6823F47C327B68A7
:103870001B691B03014913434B6025E000440258B8
:103880009A4B5B6823F0FE427B681B691B069749D5
:1038900013434B6018E0954B1B68944A23F00103D7
:1038A0001360FFF74DFB786208E0FFF749FB024623
:1038B0007B6AD31A022B01D90323EDE28B4B1B68E1
:1038C00003F00403002BF0D17B681B6803F01003A6
:1038D000002B00F0A980854B1B6903F03803BB6106
:1038E000824B9B6A7B61BB69082B07D0BB69182B95
:1038F0003AD17B6903F00303012B35D17B4B1B6865
:1039000003F48073002B05D07B68DB69802B01D02A
:103910000123C1E2FFF744FB034641F20302934255
:1039200017D87B681B6A202B08D1704B5B6823F08B
:10393000F8436E4A43F08043536075E06B4B5B681D
:1039400023F0F8427B681B6A9B06684913434B606F
:103950006AE0664BDB6823F07C527B681B6A1B06BF
:1039600062491343CB605FE07B68DB69002B42D088
:103970005E4B1B685D4A43F080031360FFF7E0FA7B
:10398000786208E0FFF7DCFA02467B6AD31A022B62
:1039900001D9032380E2554B1B6803F48073002B8D
:1039A000F0D0FFF7FDFA034641F20302934217D825
:1039B0007B681B6A202B08D14C4B5B6823F0F843D3
:1039C0004A4A43F0804353602EE0484B5B6823F043
:1039D000F8427B681B6A9B06444913434B6023E013
:1039E000424BDB6823F07C527B681B6A1B063F4915
:1039F0001343CB6018E03D4B1B683C4A23F0800327
:103A00001360FFF79DFA786208E0FFF799FA024623
:103A10007B6AD31A022B01D903233DE2334B1B6887
:103A200003F48073002BF0D17B681B6803F008035C
:103A3000002B36D07B685B69002B19D02B4B5B6F5A
:103A40002A4A43F001035367FFF77AFA786208E0E5
:103A5000FFF776FA02467B6AD31A022B01D90323B9
:103A60001AE2224B5B6F03F00203002BF0D018E048
:103A70001E4B5B6F1D4A23F001035367FFF760FA8B
:103A8000786208E0FFF75CFA02467B6AD31A022BE1
:103A900001D9032300E2154B5B6F03F00203002BF7
:103AA000F0D17B681B6803F02003002B39D07B68C2
:103AB0009B69002B1CD00D4B1B680C4A43F48053B0
:103AC0001360FFF73DFA786208E0FFF739FA024623
:103AD0007B6AD31A022B01D90323DDE1034B1B6858
:103AE00003F40053002BF0D01BE000BF0044025849
:103AF0009B4B1B689A4A23F480531360FFF720FA0C
:103B0000786208E0FFF71CFA02467B6AD31A022BA0
:103B100001D90323C0E1924B1B6803F40053002B2F
:103B2000F0D17B681B6803F00403002B00F0818058
:103B30008C4B1B688B4A43F480731360FFF700FAC9
:103B4000786208E0FFF7FCF902467B6AD31A642B1F
:103B500001D90323A0E1834B1B6803F48073002B7E
:103B6000F0D07B689B68012B06D17D4B1B6F7C4A94
:103B700043F0010313672DE07B689B68002B0CD199
:103B8000774B1B6F764A23F001031367744B1B6F4F
:103B9000734A23F0040313671CE07B689B68052BC2
:103BA0000CD16F4B1B6F6E4A43F0040313676C4BD1
:103BB0001B6F6B4A43F0010313670BE0684B1B6FED
:103BC000674A23F001031367654B1B6F644A23F0B8
:103BD000040313677B689B68002B15D0FFF7B0F9CF
:103BE00078620AE0FFF7ACF902467B6AD31A41F229
:103BF0008832934201D903234EE1594B1B6F03F0E6
:103C00000203002BEED014E0FFF79AF978620AE085
:103C1000FFF796F902467B6AD31A41F28832934243
:103C200001D9032338E14E4B1B6F03F00203002B35
:103C3000EED17B685B6A002B00F02D81484B1B693D
:103C400003F03803182B00F0BD807B685B6A022B01
:103C500040F09E80424B1B68414A23F08073136002
:103C6000FFF76EF9786208E0FFF76AF902467B6AAF
:103C7000D31A022B01D903230EE1394B1B6803F041
:103C80000073002BF0D1364B9A6A374B13407A6899
:103C9000916A7A68D26A12010A43314913438B62EE
:103CA0007B681B6B013BC3F308027B685B6B013BCA
:103CB0005B029BB21A437B689B6B013B1B0403F4C2
:103CC000FE031A437B68DB6B013B1B0603F0FE43DC
:103CD000234913430B63224BDB6A214A23F0010380
:103CE000D3621F4B5A6B214B13407A68926CD200FF
:103CF0001B4913434B631A4BDB6A23F00C027B68AE
:103D00001B6C17491343CB62154BDB6A23F002028D
:103D10007B685B6C12491343CB62114BDB6A104A20
:103D200043F48033D3620E4BDB6A0D4A43F4003315
:103D3000D3620B4BDB6A0A4A43F48023D362084BFD
:103D4000DB6A074A43F00103D362054B1B68044A50
:103D500043F080731360FFF7F3F8786211E000BF5F
:103D600000440258004802580CFCFFFF0700FFFF08
:103D7000FFF7E6F802467B6AD31A022B01D9032328
:103D80008AE0474B1B6803F00073002BF0D082E001
:103D9000434B1B68424A23F080731360FFF7D0F84F
:103DA000786208E0FFF7CCF802467B6AD31A022B50
:103DB00001D9032370E03A4B1B6803F00073002B1A
:103DC000F0D168E0364B9B6A3B61354B1B6BFB6067
:103DD0007B685B6A012B31D03B6903F003027B688F
:103DE0009B6A9A422AD13B691B0903F03F027B6818
:103DF000DB6A9A4222D1FB68C3F308027B681B6B23
:103E0000013B9A421AD1FB685B0A03F07F027B6890
:103E10005B6B013B9A4211D1FB681B0C03F07F02E4
:103E20007B689B6B013B9A4208D1FB681B0E03F039
:103E30007F027B68DB6B013B9A4201D001232BE0C0
:103E4000174B5B6BDB08C3F30C033B617B689B6C1C
:103E50003A699A421FD0124BDB6A114A23F00103E0
:103E6000D362FFF76DF8786200BFFFF769F802468A
:103E70007B6A9342F9D00A4B5A6B0A4B13407A681B
:103E8000926CD200064913434B63054BDB6A044A2C
:103E900043F00103D362002318463037BD4680BD8E
:103EA000004402580700FFFF80B586B000AF78607D
:103EB00039607B68002B01D101239CE18A4B1B6890
:103EC00003F00F033A689A4210D9874B1B6823F01E
:103ED0000F0285493B6813430B60834B1B6803F05B
:103EE0000F033A689A4201D0012384E17B681B6882
:103EF00003F00403002B10D07B681A697B4B9B698D
:103F000003F070039A4208D9784B9B6923F0700242
:103F10007B681B69754913438B617B681B6803F0E1
:103F20000803002B10D07B685A69704BDB6903F0E3
:103F300070039A4208D96D4BDB6923F070027B68ED
:103F40005B696A491343CB617B681B6803F010030C
:103F5000002B10D07B689A69644BDB6903F4E06343
:103F60009A4208D9614BDB6923F4E0627B689B6964
:103F70005E491343CB617B681B6803F02003002B71
:103F800010D07B68DA69594B1B6A03F070039A42C0
:103F900008D9564B1B6A23F070027B68DB695349D2
:103FA00013430B627B681B6803F00203002B10D0E5
:103FB0007B68DA684D4B9B6903F00F039A4208D97E
:103FC0004A4B9B6923F00F027B68DB684749134328
:103FD0008B617B681B6803F00103002B55D0434BBA
:103FE0009B6923F470627B689B68404913438B6133
:103FF0007B685B68022B07D13C4B1B6803F40033E2
:10400000002B21D10123F6E07B685B68032B07D1ED
:10401000364B1B6803F00073002B15D10123EAE037
:104020007B685B68012B07D1304B1B6803F48073FE
:10403000002B09D10123DEE02C4B1B6803F00403A5
:10404000002B01D10123D6E0284B1B6923F0070286
:104050007B685B68254913430B61FEF771FF78614C
:104060000AE0FEF76DFF02467B69D31A41F28832FF
:10407000934201D90323BEE01C4B1B6903F03802B5
:104080007B685B68DB009A42EBD17B681B6803F0BE
:104090000203002B10D07B68DA68144B9B6903F095
:1040A0000F039A4208D2114B9B6923F00F027B68E1
:1040B000DB680E4913438B610B4B1B6803F00F0346
:1040C0003A689A4214D2084B1B6823F00F02064943
:1040D0003B6813430B60044B1B6803F00F033A6803
:1040E0009A4205D0012386E0002000520044025885
:1040F0007B681B6803F00403002B10D07B681A69EF
:104100003F4B9B6903F070039A4208D23C4B9B697A
:1041100023F070027B681B69394913438B617B680C
:104120001B6803F00803002B10D07B685A69344BDE
:10413000DB6903F070039A4208D2314BDB6923F04C
:1041400070027B685B692E491343CB617B681B68F7
:1041500003F01003002B10D07B689A69284BDB69B1
:1041600003F4E0639A4208D2254BDB6923F4E06252
:104170007B689B6922491343CB617B681B6803F012
:104180002003002B10D07B68DA691D4B1B6A03F0FB
:1041900070039A4208D21A4B1B6A23F070027B68A4
:1041A000DB69174913430B6200F034F80246144BE5
:1041B0009B691B0A03F00F031249CB5C03F01F033A
:1041C00022FA03F33B610E4B9B6903F00F030D4A88
:1041D000D35C03F01F033A6922FA03F30A4A13601F
:1041E0000A4A3B6913600A4B1B681846FEF75EFEDD
:1041F0000346FB73FB7B18461837BD4680BD00BFE6
:1042000000440258E082000804000024000000245A
:104210009800002480B489B000AFB34B1B6903F051
:104220003803182B00F2558101A252F823F000BF89
:1042300095420008D3440008D3440008D344000842
:10424000D3440008D3440008D3440008D3440008F2
:10425000BB420008D3440008D3440008D3440008FC
:10426000D3440008D3440008D3440008D3440008D2
:10427000C1420008D3440008D3440008D3440008D6
:10428000D3440008D3440008D3440008D3440008B2
:10429000C7420008944B1B6803F02003002B09D091
:1042A000914B1B68DB0803F00303904A22FA03F3E7
:1042B000BB6111E18D4BBB610EE18D4BBB610BE12D
:1042C0008C4BBB6108E1884B9B6A03F003037B6165
:1042D000854B9B6A1B0903F03F033B61824BDB6A02
:1042E00003F00103FB60804B5B6BDB08C3F30C0343
:1042F000FA6802FB03F307EE903AF8EE677AC7ED2F
:10430000027A3B69002B00F0E1807B69022B00F010
:1043100083807B69022B00F2A1807B69002B03D094
:104320007B69012B56D099E06F4B1B6803F020038B
:10433000002B2DD06C4B1B68DB0803F003036B4A8A
:1043400022FA03F37B607B6807EE903AF8EE676A27
:104350003B6907EE903AF8EE677A86EEA77A624BF1
:104360001B6BC3F3080307EE903AF8EE676A97ED0C
:10437000026ADFED615AC6EE257A76EEA77AF7EE8D
:10438000006A77EEA67A67EE277AC7ED077A87E0AC
:104390003B6907EE903AF8EE677ADFED586A86EEF1
:1043A000A77A514B1B6BC3F3080307EE903AF8EE64
:1043B000676A97ED026ADFED505AC6EE257A76EE0F
:1043C000A77AF7EE006A77EEA67A67EE277AC7ED4E
:1043D000077A65E03B6907EE903AF8EE677ADFED21
:1043E000486A86EEA77A404B1B6BC3F3080307EEBF
:1043F000903AF8EE676A97ED026ADFED3F5AC6EE33
:10440000257A76EEA77AF7EE006A77EEA67A67EE5F
:10441000277AC7ED077A43E03B6907EE903AF8EE5A
:10442000677ADFED386A86EEA77A2F4B1B6BC3F3F2
:10443000080307EE903AF8EE676A97ED026ADFED3F
:104440002E5AC6EE257A76EEA77AF7EE006A77EE58
:10445000A67A67EE277AC7ED077A21E03B6907EE77
:10446000903AF8EE677ADFED266A86EEA77A1E4B61
:104470001B6BC3F3080307EE903AF8EE676A97EDFB
:10448000026ADFED1D5AC6EE257A76EEA77AF7EEC0
:10449000006A77EEA67A67EE277AC7ED077A00BF43
:1044A000114B1B6B5B0A03F07F0301333B603B68DE
:1044B00007EE903AB8EE677AD7ED076AC6EE877ACC
:1044C000FCEEE77A17EE903ABB6105E00023BB6192
:1044D00002E0074BBB6100BFBB6918462437BD46ED
:1044E0005DF8047B704700BF004402580090D00381
:1044F00000093D0040787D01000000460024744C16
:104500000024744A20BCBE4B2DE9B04FCAB000AFA6
:10451000C7F81401002387F82731002387F82631D4
:10452000D7F81431D3E9002302F00064002554EADF
:10453000050349D0D7F814319B6EB3F5401F2FD037
:10454000B3F5401F28D8B3F5001F1AD0B3F5001FEC
:1045500022D8002B03D0B3F5801F07D01CE0B84B46
:10456000DB6AB74A43F40033D3621AE0D7F8143158
:1045700008330221184601F0D1F9034687F82731A4
:104580000FE0D7F8143128330221184601F078FAE9
:10459000034687F8273104E0012387F8273100E03C
:1045A00000BF97F82731002B0AD1A54B1B6D23F4D0
:1045B0004011D7F814319B6EA14A0B43136503E0F9
:1045C00097F8273187F82631D7F81431D3E900233B
:1045D00002F480784FF0000958EA090347D0D7F871
:1045E00014319B6D042B2AD801A252F823F000BF8E
:1045F00005460008134600082946000847460008FB
:10460000474600088E4BDB6A8D4A43F40033D36281
:104610001AE0D7F8143108330021184601F07EF96A
:10462000034687F827310FE0D7F8143128330021EB
:10463000184601F025FA034687F8273104E00123E4
:1046400087F8273100E000BF97F82731002B0AD107
:104650007B4B1B6D23F00701D7F814319B6D784A13
:104660000B43136503E097F8273187F82631D7F815
:104670001431D3E9002302F4007A4FF0000B5AEA18
:104680000B034CD0D7F81431DB6DB3F5807F30D0FD
:10469000B3F5807F29D8C02B2DD0C02B25D8802BF7
:1046A00018D0802B21D8002B02D0402B07D01CE043
:1046B000634BDB6A624A43F40033D3621CE0D7F8F1
:1046C000143108330021184601F028F9034687F811
:1046D000273111E0D7F8143128330021184601F0B2
:1046E000CFF9034687F8273106E0012387F8273101
:1046F00002E000BF00E000BF97F82731002B0AD18D
:104700004F4B1B6D23F4E071D7F81431DB6D4C4A2D
:104710000B43136503E097F8273187F82631D7F864
:104720001431D3E9002302F48063C7F80831002371
:10473000C7F80C31D7E942120B46134353D0D7F8D0
:104740001431D3F8A830B3F5000F35D0B3F5000F0E
:104750002ED8B3F5C00F31D0B3F5C00F28D8B3F5BC
:10476000800F1AD0B3F5800F22D8002B03D0B3F5F9
:10477000001F07D01CE0324BDB6A314A43F40033A0
:10478000D3621CE0D7F8143108330021184601F039
:10479000C5F8034687F8273111E0D7F814312833DC
:1047A0000021184601F06CF9034687F8273106E02E
:1047B000012387F8273102E000BF00E000BF97F82F
:1047C0002731002B0BD11E4B9B6D23F46001D7F8D2
:1047D0001431D3F8A8301A4A0B43936503E097F8D5
:1047E000273187F82631D7F81431D3E9002302F4B2
:1047F0000063C7F800310023C7F80431D7E940123D
:104800000B46134356D0D7F81431D3F8AC30B3F17C
:10481000806F38D0B3F1806F31D8B3F1407F34D09E
:10482000B3F1407F2BD8B3F1007F1DD0B3F1007FEF
:1048300025D8002B06D0B3F1807F0AD01FE000BF3F
:1048400000440258A24BDB6AA14A43F40033D3620E
:104850001CE0D7F8143108330021184601F05EF847
:10486000034687F8273111E0D7F8143128330021A7
:10487000184601F005F9034687F8273106E00123C1
:1048800087F8273102E000BF00E000BF97F827312A
:10489000002B0BD18E4B9B6D23F0E061D7F81431C8
:1048A000D3F8AC308A4A0B43936503E097F827317D
:1048B00087F82631D7F81431D3E9002302F00073CA
:1048C000C7F8F8300023C7F8FC30D7E93E120B4692
:1048D00013433AD0D7F81431DB6C302B1FD0302B78
:1048E00019D8202B0CD0202B15D8002B19D0102B29
:1048F00011D1774BDB6A764A43F40033D36211E07F
:10490000D7F8143108330221184601F007F803469E
:1049100087F8273106E0012387F8273102E000BF3E
:1049200000E000BF97F82731002B0AD1684BDB6C01
:1049300023F03001D7F81431DB6C654A0B43D364A4
:1049400003E097F8273187F82631D7F81431D3E9F7
:10495000002302F48053C7F8F0300023C7F8F43086
:10496000D7E93C120B46134351D0D7F814311B6ED4
:10497000B3F5804F35D0B3F5804F2ED8B3F5405FF7
:1049800031D0B3F5405F28D8B3F5005F1AD0B3F546
:10499000005F22D8002B03D0B3F5805F07D01CE066
:1049A0004B4BDB6A4A4A43F40033D3621CE0D7F82E
:1049B000143108330021184600F0B0FF034687F891
:1049C000273111E0D7F8143128330021184601F0BF
:1049D00057F8034687F8273106E0012387F8273187
:1049E00002E000BF00E000BF97F82731002B0AD19A
:1049F000374B1B6D23F4E041D7F814311B6E344A5A
:104A00000B43136503E097F8273187F82631D7F871
:104A10001431D3E9002302F40053C7F8E83000232F
:104A2000C7F8EC30D7E93A120B46134356D0D7F803
:104A300014315B6EB3F5A02F33D0B3F5A02F2CD873
:104A4000B3F5802F2FD0B3F5802F26D8B3F5403F94
:104A50002BD0B3F5403F20D8B3F5003F12D0B3F5CB
:104A6000003F1AD8002B22D0B3F5803F15D1D7F8DC
:104A7000143108330121184600F050FF034687F82F
:104A8000273115E0D7F8143128330121184600F0FA
:104A9000F7FF034687F827310AE0012387F827311B
:104AA00006E000BF04E000BF02E000BF00E000BF7E
:104AB00097F82731002B0DD1054B1B6D23F4E02116
:104AC000D7F814315B6E024A0B43136506E000BF52
:104AD0000044025897F8273187F82631D7F8143167
:104AE000D3E9002302F48043C7F8E0300023C7F87D
:104AF000E430D7E938120B46134355D0D7F81431B8
:104B0000D3F8B030B3F1A04F33D0B3F1A04F2CD8CD
:104B1000B3F1804F2FD0B3F1804F26D8B3F1405F6F
:104B20002BD0B3F1405F20D8B3F1005F12D0B3F1C6
:104B3000005F1AD8002B22D0B3F1805F15D1D7F8CF
:104B4000143108330121184600F0E8FE034687F8C7
:104B5000273115E0D7F8143128330121184600F029
:104B60008FFF034687F827310AE0012387F82731B2
:104B700006E000BF04E000BF02E000BF00E000BFAD
:104B800097F82731002B0BD1A34B9B6D23F0E0410D
:104B9000D7F81431D3F8B0309F4A0B43936503E044
:104BA00097F8273187F82631D7F81431D3E9002355
:104BB00002F40043C7F8D8300023C7F8DC30D7E947
:104BC00036120B46134337D0D7F814311B6FB3F1AD
:104BD000005F0ED0B3F1005F16D8002B18D0B3F1F0
:104BE000805F11D18C4BDB6A8B4A43F40033D36274
:104BF0000FE0D7F8143108330121184600F08EFE7B
:104C0000034687F8273104E0012387F8273100E0C5
:104C100000BF97F82731002B0AD17F4B1B6D23F083
:104C20004051D7F814311B6F7B4A0B43136503E0E7
:104C300097F8273187F82631D7F81431D3E90023C4
:104C400002F08073C7F8D0300023C7F8D430D7E91A
:104C500034120B46134339D0D7F814319B6C032B15
:104C60001CD801A252F823F0A54C0008794C00088A
:104C7000874C0008A54C0008674BDB6A664A43F482
:104C80000033D3620FE0D7F81431083302211846FD
:104C900000F044FE034687F8273104E0012387F83B
:104CA000273100E000BF97F82731002B0AD15A4B7B
:104CB000DB6C23F00301D7F814319B6C564A0B438D
:104CC000D36403E097F8273187F82631D7F81431F9
:104CD000D3E9002302F48003C7F8C8300023C7F8E3
:104CE000CC30D7E932120B46134300F09F804B4B78
:104CF0001B684A4A43F480731360FEF721F9C7F832
:104D000020010BE0FEF71CF90246D7F82031D31A38
:104D1000642B03D9032387F8273105E03F4B1B6839
:104D200003F48073002BEDD097F82731002B79D155
:104D3000394B1A6FD7F81431D3F8B430534003F419
:104D40004073002B15D0344B1B6F23F44073C7F80E
:104D50001C31314B1B6F304A43F4803313672E4BA9
:104D60001B6F2D4A23F4803313672B4AD7F81C316D
:104D70001367D7F81431D3F8B430B3F5807F18D166
:104D8000FEF7DEF8C7F820010DE0FEF7D9F802467D
:104D9000D7F82031D21A41F288339A4203D903233B
:104DA00087F8273105E01C4B1B6F03F00203002B33
:104DB000EBD097F82731002B29D1D7F81431D3F84D
:104DC000B43003F44073B3F5407F0ED1124B1B692E
:104DD00023F47C51D7F81431D3F8B4301A09104BAE
:104DE00013400D4A0B43136105E00B4B1B690A4A44
:104DF00023F47C531361084B196FD7F81431D3F89F
:104E0000B430C3F30B03044A0B4313670EE097F867
:104E1000273187F8263109E000440258004802583B
:104E2000CFFFFF0097F8273187F82631D7F81431E4
:104E3000D3E9002302F00103C7F8C0300023C7F80C
:104E4000C430D7E930120B46134300F08980D7F8FD
:104E50001431DB6F282B6BD801A252F823F000BF6E
:104E6000394F0008314F0008314F0008314F00081A
:104E7000314F0008314F0008314F0008314F000812
:104E8000054F0008314F0008314F0008314F00082E
:104E9000314F0008314F0008314F0008314F0008F2
:104EA0001B4F0008314F0008314F0008314F0008F8
:104EB000314F0008314F0008314F0008314F0008D2
:104EC000394F0008314F0008314F0008314F0008BA
:104ED000314F0008314F0008314F0008314F0008B2
:104EE000394F0008314F0008314F0008314F00089A
:104EF000314F0008314F0008314F0008314F000892
:104F0000394F0008D7F8143108330121184600F052
:104F100005FD034687F827310FE0D7F81431283311
:104F20000121184600F0ACFD034687F8273104E064
:104F3000012387F8273100E000BF97F82731002BC5
:104F40000AD1BF4B5B6D23F03801D7F81431DB6F0A
:104F5000BB4A0B43536503E097F8273187F82631A6
:104F6000D7F81431D3E9002302F00203C7F8B830B0
:104F70000023C7F8BC30D7E92E120B46134341D0AB
:104F8000D7F814319B6F052B24D801A252F823F0D7
:104F9000DD4F0008A94F0008BF4F0008DD4F000893
:104FA000DD4F0008DD4F0008D7F814310833012128
:104FB000184600F0B3FC034687F827310FE0D7F816
:104FC000143128330121184600F05AFD034687F8B2
:104FD000273104E0012387F8273100E000BF97F86C
:104FE0002731002B0AD1964B5B6D23F00701D7F8D0
:104FF00014319B6F924A0B43536503E097F82731B6
:1050000087F82631D7F81431D3E9002302F00403DE
:10501000C7F8B0300023C7F8B430D7E92C120B46DC
:10502000134344D0D7F81431D3F89430052B25D846
:1050300001A252F823F000BF85500008515000082B
:10504000675000088550000885500008855000080A
:10505000D7F8143108330121184600F05FFC0346ED
:1050600087F827310FE0D7F814312833012118468B
:1050700000F006FD034687F8273104E0012387F896
:10508000273100E000BF97F82731002B0BD16C4B84
:105090009B6D23F00701D7F81431D3F89430684A98
:1050A0000B43936503E097F8273187F82631D7F84B
:1050B0001431D3E9002302F02003C7F8A8300023FD
:1050C000C7F8AC30D7E92A120B46134355D0D7F8AE
:1050D0001431D3F89030B3F1A04F33D0B3F1A04FD7
:1050E0002CD8B3F1804F2FD0B3F1804F26D8B3F135
:1050F000405F2BD0B3F1405F20D8B3F1005F12D0F6
:10510000B3F1005F1AD8002B22D0B3F1805F15D124
:10511000D7F8143108330021184600F0FFFB03468E
:1051200087F8273115E0D7F81431283302211846C3
:1051300000F0A6FC034687F827310AE0012387F830
:10514000273106E000BF04E000BF02E000BF00E03E
:1051500000BF97F82731002B0BD1394B5B6D23F043
:10516000E041D7F81431D3F89030354A0B435365FA
:1051700003E097F8273187F82631D7F81431D3E9BF
:10518000002302F04003C7F8A0300023C7F8A43082
:10519000D7E928120B46134358D0D7F81431D3F867
:1051A0009C30B3F5A05F33D0B3F5A05F2CD8B3F536
:1051B000805F2FD0B3F5805F26D8B3F5406F2BD03A
:1051C000B3F5406F20D8B3F5006F12D0B3F5006F80
:1051D0001AD8002B22D0B3F5806F15D1D7F814312F
:1051E00008330021184600F099FB034687F8273161
:1051F00015E0D7F8143128330221184600F040FC9E
:10520000034687F827310AE0012387F8273106E0B3
:1052100000BF04E000BF02E000BF00E000BF97F85D
:105220002731002B0ED1064B9B6D23F4E051D7F8AC
:105230001431D3F89C30024A0B43936506E000BF5B
:105240000044025897F8273187F82631D7F81431EF
:10525000D3E9002302F08003C7F898300023C7F891
:105260009C30D7E926120B46134355D0D7F814319A
:10527000D3F8A030B3F5204F33D0B3F5204F2CD85E
:10528000B3F5004F2FD0B3F5004F26D8B3F5C04F7C
:105290002BD0B3F5C04F20D8B3F5804F12D0B3F563
:1052A000804F1AD8002B22D0B3F5005F15D1D7F864
:1052B000143108330021184600F030FB034687F80C
:1052C000273115E0D7F8143128330221184600F0B1
:1052D000D7FB034687F827310AE0012387F82731F7
:1052E00006E000BF04E000BF02E000BF00E000BF36
:1052F00097F82731002B0BD1A14B9B6D23F4604114
:10530000D7F81431D3F8A0309D4A0B43936503E0DE
:1053100097F8273187F82631D7F81431D3E90023DD
:1053200002F00803C7F890300023C7F89430D7E99B
:1053300024120B4613431ED0D7F81431D3F884300F
:10534000B3F5805F0CD1D7F8143128330221184609
:1053500000F096FB0346002B02D0012387F826318C
:10536000874B5B6D23F44051D7F81431D3F8843068
:10537000834A0B435365D7F81431D3E9002302F075
:105380001003C7F888300023C7F88C30D7E9221201
:105390000B4613431ED0D7F81431D3F89830B3F529
:1053A000807F0CD1D7F8143128330221184600F041
:1053B00067FB0346002B02D0012387F82631704B90
:1053C0009B6D23F44071D7F81431D3F898306C4AB0
:1053D0000B439365D7F81431D3E9002302F400237B
:1053E000C7F880300023C7F88430D7E920120B4675
:1053F00013433ED0D7F81431D3F8A430B3F5003FAF
:1054000022D0B3F5003F1BD8002B03D0B3F5803F6B
:105410000BD015E0D7F8143108330021184600F0FE
:105420007DFA034687F827310FE0D7F81431283387
:105430000221184600F024FB034687F8273104E0D8
:10544000012387F8273100E000BF97F82731002BB0
:105450000BD14B4B9B6D23F44031D7F81431D3F86B
:10546000A430474A0B43936503E097F8273187F848
:105470002631D7F81431D3E9002302F48023BB6727
:105480000023FB67D7E91E120B4613433BD0D7F826
:105490001431D3F88830B3F5401F1FD0B3F5401F47
:1054A00018D8B3F5801F03D0B3F5001F07D011E063
:1054B000334BDB6A324A43F40033D3620FE0D7F850
:1054C000143128330121184600F0DAFA034687F830
:1054D000273104E0012387F8273100E000BF97F867
:1054E0002731002B0BD1264B5B6D23F44011D7F8ED
:1054F0001431D3F88830224A0B43536503E097F800
:10550000273187F82631D7F81431D3E9002302F484
:1055100080333B6700237B67D7E91C120B4613439C
:1055200034D0D7F814311B6D002B03D0B3F5803F76
:1055300007D011E0124BDB6A114A43F40033D36207
:105540000EE0D7F8143108330221184600F0E6F9CE
:10555000034687F8273103E0012387F8273100BF8E
:1055600097F82731002B0DD1054BDB6C23F48031EC
:10557000D7F814311B6D024A0B43D36406E000BF19
:105580000044025897F8273187F82631D7F81431AC
:10559000D3E9002302F00053BB660023FB66D7E982
:1055A0001A120B4613430CD0D7F8143128330221BA
:1055B000184600F065FA0346002B02D0012387F855
:1055C0002631D7F81431D3E9002302F400333B66C7
:1055D00000237B66D7E918120B46134338D0D7F85F
:1055E0001431D3F88030B3F5407F18D0B3F5407F45
:1055F00011D8B3F5007F14D0B3F5007F0BD8002B82
:1056000011D0B3F5807F06D1C34BDB6AC24A43F4A5
:105610000033D36208E0012387F8273104E000BF9C
:1056200002E000BF00E000BF97F82731002B0BD14C
:10563000B94B5B6D23F44071D7F81431D3F8803047
:10564000B54A0B43536503E097F8273187F82631B5
:10565000D7F81431D3E9002302F48013BB6500238B
:10566000FB65D7E916120B46134309D0AA4B1B6DF5
:1056700023F00041D7F814315B6FA74A0B43136541
:10568000D7F81431D3E9002302F080533B6500239F
:105690007B65D7E914120B4613430AD09E4B1B6956
:1056A00023F48041D7F81431D3F8B8309A4A0B4329
:1056B0001361D7F81431D3E9002302F40013BB645B
:1056C0000023FB64D7E912120B46134309D0924B17
:1056D0001B6D23F08071D7F81431DB6E8E4A0B43BB
:1056E0001365D7F81431D3E9002302F080433B64FB
:1056F00000237B64D7E910120B4613430ED0864B70
:105700001B69854A23F400431361834B1969D7F859
:105710001431D3F8BC30804A0B431361D7F81431ED
:10572000D3E9002302F00043BB630023FB63D7E906
:105730000E120B46134309D0774BDB6C23F040511C
:10574000D7F814315B6D744A0B43D364D7F8143126
:10575000D3E9002302F400033B6300237B63D7E912
:105760000C120B4613430AD06B4B5B6D23F44001C4
:10577000D7F81431D3F88C30674A0B435365D7F808
:105780001431D3E900230021B96203F00103FB6265
:10579000D7E90A120B46134311D0D7F81431083356
:1057A0000021184600F0BAF8034687F8273197F829
:1057B0002731002B03D097F8273187F82631D7F807
:1057C0001431D3E900230021396203F002037B6224
:1057D000D7E908120B46134311D0D7F81431083318
:1057E0000121184600F09AF8034687F8273197F808
:1057F0002731002B03D097F8273187F82631D7F8C7
:105800001431D3E900230021B96103F00403FB61E3
:10581000D7E906120B46134311D0D7F814310833D9
:105820000221184600F07AF8034687F8273197F8E6
:105830002731002B03D097F8273187F82631D7F886
:105840001431D3E900230021396103F008037B619F
:10585000D7E904120B46134311D0D7F8143128337B
:105860000021184600F00CF9034687F8273197F815
:105870002731002B03D097F8273187F82631D7F846
:105880001431D3E900230021B96003F01003FB6059
:10589000D7E902120B46134311D0D7F8143128333D
:1058A0000121184600F0ECF8034687F8273197F8F5
:1058B0002731002B03D097F8273187F82631D7F806
:1058C0001431D3E900230021396003F020037B6009
:1058D000D7E900120B46134311D0D7F814312833FF
:1058E0000221184600F0CCF8034687F8273197F8D4
:1058F0002731002B03D097F8273187F8263197F806
:105900002631002B01D1002300E00123184607F5C2
:105910009477BD46BDE8B08F0044025880B584B08E
:1059200000AF786039600023FB73534B9B6A03F030
:105930000303032B01D1012399E04F4B1B684E4A0F
:1059400023F080631360FDF7FBFAB86008E0FDF711
:10595000F7FA0246BB68D31A022B01D9032386E06B
:10596000454B1B6803F00063002BF0D1424B9B6A50
:1059700023F47C327B681B681B033F4913438B6213
:105980007B685B68013BC3F308027B689B68013B53
:105990005B029BB21A437B68DB68013B1B0403F488
:1059A000FE031A437B681B69013B1B0603F0FE43A1
:1059B000314913438B63304BDB6A23F0C0027B68B1
:1059C0005B692D491343CB622B4BDB6A23F020022A
:1059D0007B689B6928491343CB62274BDB6A264AC5
:1059E00023F01003D362244BDA6B244B13407A6804
:1059F000D269D20020491343CB631F4BDB6A1E4A96
:105A000043F01003D3623B68002B06D11A4BDB6ACC
:105A1000194A43F40023D3620FE03B68012B06D1FF
:105A2000154BDB6A144A43F48013D36205E0124B32
:105A3000DB6A114A43F40013D3620F4B1B680E4A12
:105A400043F080631360FDF77BFAB86008E0FDF770
:105A500077FA0246BB68D31A022B01D9032306E06A
:105A6000054B1B6803F00063002BF0D0FB7B18464E
:105A70001037BD4680BD00BF004402580700FFFF3D
:105A800080B584B000AF786039600023FB73534B5E
:105A90009B6A03F00303032B01D1012399E04F4BD1
:105AA0001B684E4A23F080531360FDF749FAB86033
:105AB00008E0FDF745FA0246BB68D31A022B01D96C
:105AC000032386E0454B1B6803F00053002BF0D105
:105AD000424B9B6A23F07C727B681B681B053F4925
